:020000040800F2
:1000000000200020410200084902000851020008B7
:1000100000000000000000000000000000000000E0
:10002000000000000000000000000000790200084D
:1000300000000000000000008102000889020008A2
:100040009902000899020008990200089902000824
:1000500099020008DD2300089902000899020008AF
:100060009902000899020008990200089902000804
:1000700099020008990200089902000899020008F4
:10008000990200089902000800000000712200088F
:1000900011230008B1230008990200089902000802
:1000A0009902000899020008990200082524000816
:1000B00099020008000000009902000800000000FA
:1000C0005FF808F180B58EB000AF01F01BFC4A4B21
:1000D0004A4A1A604A4B494A1A604A4B3B634A4BA8
:1000E000FB624A4BBB62FB6A7B6207E03A6B131D03
:1000F0003B637B6A191D796212681A60BA6A7B6A6F
:100100009A42F3D83C4B1B68414A934204D13C4B82
:100110001B68404A934200D0FEE73F4B374A1A60C3
:100120003E4B364A1A603E4B3B623E4BFB613B6A9C
:10013000BB6104E0BB691A1DBA6100221A60FA694A
:10014000BB699A42F6D8344B1B68002B03D1334B62
:100150001B68002B00D0FEE701F0DBFB3A003B1DE3
:100160001100180001F0B0FB2F4A304BD31A9B103E
:10017000FB600023BB6007E02C4BBA689200D358A9
:100180009847BB680133BB60FA68BB689A42F3DCEE
:10019000274A284BD31A9B10FB600023BB6007E063
:1001A000244BBA689200D3589847BB680133BB60B0
:1001B000FA68BB689A42F3DC7B683A681100180061
:1001C00001F058FD03007B631B4A1C4BD31A9B10A4
:1001D0007B617B693B6108E03B695A1E174B9200CB
:1001E000D35898473B69013B3B613B69002BF3DCEB
:1001F0007B6B180001F058FB00000020BABADECA81
:10020000340000200C2700080000002038000020E7
:100210007856341232547698380000205C00002062
:100220003800002060000020C8020008C802000852
:10023000C8020008C8020008C8020008C802000876
:1002400080B500AFFFF73EFF80B500AF00BEFEE710
:1002500004207146084202D0EFF3098001E0EFF379
:10026000088071460B4A1047C04680B582B000AF87
:100270007860396000BEFEE780B500AF00BEFEE7E3
:1002800080B500AF00BEFEE780B500AFC046BD46FA
:1002900080BD00006B02000880B500AF00BEFEE725
:1002A0000C27000800000020380000200C27000860
:1002B0000000000000000000380000206000002066
:0802C000000000000000000036
:1002C80080B582B000AF78607B686A4A934230D0CC
:1002D8007B68694A93422CD07B68684A934228D04D
:1002E8007B68674A934224D07B68664A934220D051
:1002F8007B68654A93421CD07B68644A934218D055
:100308007B68634A934214D07B68624A934210D058
:100318007B68614A93420CD07B68604A934208D05C
:100328007B685F4A934204D05E4B8C21180001F031
:10033800D9FA7B681B685C4A1A407B681A607B683C
:1003480000221A607B6800225A607B6800229A604B
:100358007B680022DA607B68464A934206D1534B99
:100368005A68524B0F210A435A607FE07B68424A21
:10037800934206D14D4B5A684C4BF0210A435A60C0
:1003880074E07B683D4A934207D1484B5A68474B13
:10039800F02109010A435A6068E07B68384A9342B1
:1003A80007D1424B5A68414BF02109020A435A606F
:1003B8005CE07B68334A934207D13C4B5A683B4B1D
:1003C800F02109030A435A6050E07B682E4A9342A1
:1003D80007D1364B5A68354BF02109040A435A6055
:1003E80044E07B68294A934207D1304B5A682F4B27
:1003F800F02109050A435A6038E07B68244A934291
:1004080006D12B4B5A682A4B0F210A435A602DE01C
:100418007B68204A934206D1254B5A68244BF02129
:100428000A435A6022E07B681B4A934207D1204B5B
:100438005A681F4BF02109010A435A6016E07B688D
:10044800164A934207D11A4B5A68194BF0210902F0
:100458000A435A600AE07B68114A934206D1144B5A
:100468005A68134BF02109030A435A60C046BD4637
:1004780002B080BD080002401C000240300002406B
:1004880044000240580002406C00024080000240D4
:10049800080402401C0402403004024044040240A4
:1004A80058040240C0250008FEFF0000000002407A
:1004B8000004024080B584B000AF78603960002342
:1004C800FB607B687E4A934230D07B687D4A9342CA
:1004D8002CD07B687C4A934228D07B687B4A934225
:1004E80024D07B687A4A934220D07B68794A934229
:1004F8001CD07B68784A934218D07B68774A93422D
:1005080014D07B68764A934210D07B68754A934230
:100518000CD07B68744A934208D07B68734A934234
:1005280004D0734BEE21180001F0DCF93B689B689E
:10053800002B08D03B689B68102B04D06C4BEF2134
:10054800180001F0CFF93B68DB68002B04D03B684A
:10055800DB68684A934204D9654BF021180001F022
:10056800C1F93B681B69002B08D03B681B69402B0D
:1005780004D05F4BF121180001F0B4F93B685B69C6
:10058800002B08D03B685B69802B04D0584BF221C4
:10059800180001F0A7F93B689B69002B10D03B6855
:1005A8009A6980235B009A420AD03B689A69802343
:1005B8009B009A4204D04E4BF321180001F092F9A7
:1005C8003B68DB69002B10D03B68DA698023DB00CD
:1005D8009A420AD03B68DA6980231B019A4204D008
:1005E800434BF421180001F07DF93B681B6A002B8E
:1005F80008D03B681B6A202B04D03D4BF52118001E
:1006080001F070F93B685A6AC0239B019A4214D0E2
:100618003B685A6A80239B019A420ED03B685A6A0B
:1006280080235B019A4208D03B685B6A002B04D0A8
:100638002F4BF621180001F055F93B689B6A002BF7
:100648000AD03B689A6A8023DB019A4204D0284B7F
:10065800F721180001F046F97B681B68FB60FB680E
:10066800254A1340FB603B689A683B681B6A1A433B
:100678003B681B691A433B685B691A433B689B6983
:100688001A433B68DB691A433B685B6A1A433B6859
:100698009B6A1343FA681343FB607B68FA681A6025
:1006A8003B68DA687B685A603B681A687B689A60BE
:1006B8003B685A687B68DA60C046BD4604B080BDB6
:1006C800080002401C000240300002404400024082
:1006D800580002406C0002408000024008040240BA
:1006E8001C04024030040240440402405804024002
:1006F800C0250008FFFF00000F80FFFF80B582B013
:1007080000AF78600A00FB1C1A707B682D4A934280
:1007180032D07B682C4A93422ED07B682B4A934276
:100728002AD07B682A4A934226D07B68294A93427A
:1007380022D07B68284A93421ED07B68274A93427E
:100748001AD07B68264A934216D07B68254A934282
:1007580012D07B68244A93420ED07B68234A934286
:100768000AD07B68224A934206D0A6235A00214B1E
:100778001100180001F0B6F8FB1C1B78002B0BD0F9
:10078800FB1C1B78012B07D04E23FF331A00194B93
:100798001100180001F0A6F8FB1C1B78002B06D0EE
:1007A8007B681B6801221A437B681A6005E07B6836
:1007B8001B68114A1A407B681A60C046BD4602B0E1
:1007C80080BDC046080002401C00024030000240C4
:1007D80044000240580002406C0002408000024081
:1007E800080402401C040240300402404404024051
:1007F80058040240C0250008FEFF000080B582B002
:1008080000AF78600A00BB1C1A807B681E4A9342BE
:1008180032D07B681D4A93422ED07B681C4A934293
:100828002AD07B681B4A934226D07B681A4A934297
:1008380022D07B68194A93421ED07B68184A93429B
:100848001AD07B68174A934216D07B68164A93429F
:1008580012D07B68154A93420ED07B68144A9342A3
:100868000AD07B68134A934206D0D1235A00124B10
:100878001100180001F036F8BB1C1A887B685A6012
:10088800C046BD4602B080BD080002401C000240C0
:100898003000024044000240580002406C00024010
:1008A80080000240080402401C0402403004024058
:1008B8004404024058040240C025000880B584B0B2
:1008C80000AF78600F23FB1800221A700023BB606A
:1008D8007B68012B00D1E9E07B68022B00D1E5E0C1
:1008E8007B68042B00D1E1E07B68082B00D1DDE0B8
:1008F8007B68102B00D1D9E07B68202B00D1D5E094
:100908007B68402B00D1D1E07B68802B00D1CDE003
:100918007A6880235B009A4200D1C7E07A68802316
:100928009B009A4200D1C1E07A688023DB009A429A
:1009380000D1BBE07A6880231B019A4200D1B5E060
:100948007A6880235B019A4200D1AFE07A688023FD
:100958009B019A4200D1A9E07A688023DB019A4280
:1009680000D1A3E07A6880231B029A4200D19DE05F
:100978007A6880235B029A4200D197E07A688023E4
:100988009B029A4200D191E07A688023DB029A4266
:1009980000D18BE07A6880231B039A4200D185E05E
:1009A8007A6880235B039A4200D17FE07A688023CB
:1009B8009B039A4200D179E07A688023DB039A424C
:1009C80000D173E07A6880231B049A4200D16DE05D
:1009D8007A6880235B049A4200D167E07A688023B2
:1009E8009B049A4200D161E07A688023DB049A4232
:1009F80000D15BE07A6880231B059A4256D07B6859
:100A08003A4A934252D07B68394A93424ED07B6827
:100A1800384A93424AD07B68374A934246D07B682B
:100A2800364A934242D07B68354A93423ED07B682F
:100A3800344A93423AD07B68334A934236D07B6833
:100A4800324A934232D07B68314A93422ED07B6837
:100A5800304A93422AD07B682F4A934226D07B683B
:100A68002E4A934222D07B682D4A93421ED07B683F
:100A78002C4A93421AD07B682B4A934216D07B6843
:100A88002A4A934212D07B68294A93420ED07B6847
:100A9800284A93420AD07B68274A934206D0952376
:100AA8009A00264B1100180000F01CFF7A6880237A
:100AB8005B05134003D0224B1B68BB6002E0214B4F
:100AC8001B68BB60BB687A68134004D00F23FB180F
:100AD80001221A7003E00F23FB1800221A700F235B
:100AE800FB181B781800BD4604B080BD010000103B
:100AF8000200001004000010080000101000001090
:100B080020000010400000108000001000010010BC
:100B1800000200100004001000080010001000106F
:100B2800002000100040001000800010000001109C
:100B3800000002100000041000000810C025000882
:100B4800000402400000024080B582B000AF786027
:100B58007B681B0F1B0703D07B680E4A134002D12A
:100B68007B68002B06D1AC239A000B4B11001800B0
:100B780000F0B8FE7A6880235B05134003D0074B6A
:100B88007A685A6002E0064B7A685A60C046BD46E9
:100B980002B080BD0000F0EFC0250008000402404C
:100BA8000000024080B584B000AF78600023FB608D
:100BB8007B689B78002B08D07B689B78012B04D03E
:100BC8002D4B5221180000F08DFE7B685B78032BBB
:100BD80004D9294B5321180000F084FE7B689B78C8
:100BE800002B39D0254A7B681B789B08DBB2C033C1
:100BF8009B009B58FB607B681B781A0003231340FB
:100C0800DB00FF229A401300DA43FB681340FB60C5
:100C18007B685B789B01FF221A407B681B78190070
:100C280003230B40DB009A401300FA681343FB6070
:100C380012497B681B789B08DBB2C0339B00FA68BB
:100C48005A507B681B781A001F231A400B4B01214E
:100C580091400A001A600AE07B681B781A001F237B
:100C68001340064901229A40130080228B50C04647
:100C7800BD4604B080BDC046F025000800E100E094
:100C880080B588B000AF78600023BB6100237B612A
:100C980000233B610023FB600023BB600023FB6152
:100CA800AB4B5B680C221340BB61BB69042B0CD0B7
:100CB80002D8002B05D041E0082B0AD00C2B39D0E4
:100CC8003CE07B68A34A1A603CE07B68A14A1A6052
:100CD80038E09F4B5A68F0239B0313407B619C4B81
:100CE8005A68C0235B0213403B617B699B0C02334B
:100CF8007B613B69002B0AD179690A005201521ABB
:100D080093019B1ADB005B181B02FB610EE0904B02
:100D1800DB6A0F2213400133FB60F9688D4801F04C
:100D2800BBFB03001A007B695343FB617B68FA69CC
:100D38001A6007E07B68884A1A6003E07B68854A86
:100D48001A60C046824B5B68F0221340BB61BB69E6
:100D58001B09BB61814ABB69D3181B78DBB2BB6036
:100D68007B681A68BB68DA407B685A60784B5A68B7
:100D7800E023DB001340BB61BB691B0ABB61774AF8
:100D8800BB69D3181B78DBB2BB607B685A68BB6849
:100D9800DA407B689A606E4B1A6B80235B001A40BE
:100DA80080235B009A4203D07B686D4ADA6013E0C7
:100DB800674B5A688023DB011A408023DB019A4283
:100DC80005D07B689B685A087B68DA6004E07B681A
:100DD8009B689A087B68DA605D4B1B6B4022134066
:100DE800402B03D07B685F4A1A6103E07B6880224E
:100DF80012021A61564B1B6B10221340102B03D0A2
:100E08007B68544A5A6103E07B681A687B685A61B8
:100E18004F4B1B6B0322134004D17B689A687B6895
:100E28009A611EE04A4B1B6B03221340012B04D12D
:100E38007B681A687B689A6113E0454B1B6B032239
:100E48001340022B04D17B68802212029A6108E0C9
:100E58003F4B1B6B03221340032B02D17B683D4A97
:100E68009A613B4B1A6BC0239B02134004D17B68E9
:100E78009A687B68DA6127E0354B1A6BC0239B02BE
:100E88001A4080235B029A4204D17B681A687B6807
:100E9800DA6119E02E4B1A6BC0239B021A4080239B
:100EA8009B029A4204D17B6880221202DA610BE02D
:100EB800274B1A6BC0239B021A40C0239B029A42FD
:100EC80002D17B68234ADA61214B1A6BC0231B03CA
:100ED800134004D17B689A687B681A6227E01C4B30
:100EE8001A6BC0231B031A408023DB029A4204D1E9
:100EF8007B681A687B681A6219E0154B1A6BC02365
:100F08001B031A4080231B039A4204D17B6880226A
:100F180012021A620BE00E4B1A6BC0231B031A4015
:100F2800C0231B039A4202D17B680A4A1A62084B03
:100F38001B6B80221340802B03D07B68064A5A62C1
:100F480002E07B68FA695A62C046BD4608B080BDB7
:100F58000010024000127A00006CDC02040000203D
:100F6800809FD5001280000080B582B000AF786005
:100F78000A00FB1C1A707B68174A134002D17B6871
:100F8800002B05D1154A164B1100180000F0AAFCD9
:100F9800FB1C1B78002B09D0FB1C1B78012B05D0F0
:100FA800104A0F4B1100180000F09CFCFB1C1B782A
:100FB800002B06D00C4B59690B4B7A680A435A61CF
:100FC80006E0094B5A697B68D943074B0A405A61C6
:100FD800C046BD4602B080BDA8FF81FE5605000090
:100FE80024260008570500000010024080B590B084
:100FF80000AF786039600023FB630023BB630023E4
:101008007B637B68A24A934220D07B68A14A9342C3
:101018001CD07B68A04A934218D07B689F4A9342B1
:1010280014D07B689E4A934210D07B689D4A9342B5
:101038000CD07B689C4A934208D07B689B4A9342B9
:1010480004D09B4BF221180000F04CFC3B681B6855
:10105800002B04D03B681B68964A934204D9944BF2
:10106800F321180000F03EFC3B685B68002B0FD0B2
:101078003B685A6880235B019A4209D03B685B68E9
:101088008D4A934204D08A4BF421180000F02AFCC0
:101098003B689B68002B10D03B689A6880239B01B3
:1010A8009A420AD03B689A68C0239B019A4204D0AE
:1010B8007F4BF521180000F015FC3B68DB68002B1E
:1010C80010D03B68DA688023DB009A420AD03B687C
:1010D800DA68C023DB009A4204D0754BF621180069
:1010E80000F000FC3B681B690C22934303D13B686A
:1010F8001B69002B04D16E4BF721180000F0F2FB9E
:101108003B685B69002B16D03B685A6980235B00FB
:101118009A4210D03B685A6980239B009A420AD0B1
:101128003B685A69C0239B009A4204D0604BF8215F
:10113800180000F0D7FB7B681B68012293431A0054
:101148007B681A607B685B687B637B6B5B4A1340D8
:101158007B633B689B687A6B13437B637B687A6B22
:101168005A607B681B687B637B6B554A13407B63C3
:101178003B685A683B68DB681A433B681B69134342
:101188007A6B13437B637B687A6B1A607B689B6816
:101198007B637B6B4B4A13407B633B685B697A6B71
:1011A80013437B637B687A6B9A600C23FB181800E7
:1011B800FFF766FD7B68364A934204D10C23FB187F
:1011C8009B69BB6315E07B68324A934204D10C23C8
:1011D800FB18DB69BB630CE07B682F4A934204D1A0
:1011E8000C23FB181B6ABB6303E00C23FB189B68EA
:1011F800BB637B681A6880231B02134014D0BB6B47
:101208005A003B681B681900100001F045F90300FB
:10121800FB63BB6B5A003B681B681900100001F0A8
:10122800C1F90B007B6310E03B681B681900B86BC1
:1012380001F032F90300FB633B681A68BB6B1100CD
:10124800180001F0AFF90B007B633B681B685B0873
:101258007A6B9A4202D3FB6B0133FB637B681A6893
:1012680080231B0213400AD0FB6B5B080722134044
:101278007B63FB6B144A13407A6B1343FB63FB6B72
:101288009AB27B689A81C046BD4610B080BDC04600
:10129800003801400044004000480040004C004035
:1012A800005000400014014000180140001C01409B
:1012B80054260008808D5B0000100010FFCFFFFF50
:1012C800F3E9FFFFFFFCFFFFF0FF000080B582B0ED
:1012D80000AF78600A00FB1C1A707B68254A9342AD
:1012E80022D07B68244A93421ED07B68234A9342CB
:1012F8001AD07B68224A934216D07B68214A9342CF
:1013080012D07B68204A93420ED07B681F4A9342D2
:101318000AD07B681E4A934206D0D6235A001D4B3A
:101328001100180000F0DEFAFB1C1B78002B0BD014
:10133800FB1C1B78012B07D0AE23FF331A00154B7B
:101348001100180000F0CEFAFB1C1B78002B06D009
:101358007B681B6801221A437B681A6006E07B6879
:101368001B68012293431A007B681A60C046BD4679
:1013780002B080BD003801400044004000480040F1
:10138800004C00400050004000140140001801408B
:10139800001C01405426000880B582B000AF786078
:1013A8007B68184A934222D07B68174A93421ED022
:1013B8007B68164A93421AD07B68154A934216D026
:1013C8007B68144A934212D07B68134A93420ED02A
:1013D8007B68124A93420AD07B68114A934206D02E
:1013E800F2239A000F4B1100180000F07BFA7B687B
:1013F8009B8C9BB2DB05DB0D9BB21800BD4602B08F
:1014080080BDC0460038014000440040004800400C
:10141800004C0040005000400014014000180140FA
:10142800001C01405426000880B584B000AFF86065
:10143800B960FB1D1A70FB682B4A934222D0FB68E7
:101448002A4A93421ED0FB68294A93421AD0FB6865
:10145800284A934216D0FB68274A934212D0FB6869
:10146800264A93420ED0FB68254A93420AD0FB686D
:10147800244A934206D0D223DA00234B11001800E5
:1014880000F030FABB68C022934302D1BB68002B3E
:1014980005D11E4A1C4B1100180000F023FAFB1D51
:1014A8001B78002B09D0FB1D1B78012B05D0184A8F
:1014B800154B1100180000F015FAFB1D1B78002BC6
:1014C80006D0FB689A68BB681A43FB689A6006E016
:1014D800FB689B68BA68D2431A40FB689A60C046AA
:1014E800BD4604B080BDC0460038014000440040FD
:1014F80000480040004C00400050004000140140EB
:1015080000180140001C0140542600089106000004
:101518009206000080B588B000AFF860B960FB1D86
:101528001A700023BB6100237B6100233B61002309
:10153800FB61FB684E4A934221D0FB684D4A9342B7
:101548001DD0FB684C4A934219D0FB684B4A934222
:1015580015D0FB684A4A934211D0FB68494A934226
:101568000DD0FB68484A934209D0FB68474A93422A
:1015780005D0474A474B1100180000F0B3F9BA6884
:1015880084235B009A4232D0BB68434A93422ED0F0
:10159800BB68424A93422AD0BB68414A934226D04C
:1015A800BB68404A934222D0BB683F4A93421ED050
:1015B800BB683E4A93421AD0BA68C0239B009A423D
:1015C80015D0BB683A4A934211D0BB68394A934256
:1015D8000DD0BB68384A934209D0BB68374A93425A
:1015E80005D0374A2B4B1100180000F07BF9FB1D82
:1015F8001B78002B09D0FB1D1B78012B05D0314A25
:10160800244B1100180000F06DF9FB68FB61BB6802
:101618009BB21B0A9BB2BB61BB68FF2213407B6174
:1016280001227B699A4013003B61BB69022B03D1FD
:10163800FB690433FB6105E0BB69032B02D1FB693D
:101648000833FB61FB1D1B78002B06D0FB6919686A
:10165800FB693A690A431A6006E0FB691A683B6944
:10166800D943FB690A401A60C046BD4608B080BD30
:10167800003801400044004000480040004C004051
:10168800005000400014014000180140001C0140B7
:101698003C07000054260008070107000601060061
:1016A8000501050004010400060208000A030900F8
:1016B8001A010B001B010C000E0111001603140087
:1016C8003D0700003E07000080B586B000AF786097
:1016D80039600023FB6000237B610023BB60132378
:1016E800FB1800221A707B68554A934221D07B6808
:1016F800544A93421DD07B68534A934219D07B6861
:10170800524A934215D07B68514A934211D07B6864
:10171800504A93420DD07B684F4A934209D07B6868
:101728004E4A934205D04E4A4E4B1100180000F025
:10173800D9F83A6884235B009A4239D03B684A4A10
:10174800934235D03B68494A934231D03B68484A76
:1017580093422DD03B68474A934229D03B68464A7A
:10176800934225D03B68454A934221D03B68444A7E
:1017780093421DD03B68434A934219D03B68424A82
:10178800934215D03B68414A934211D03B68404A86
:1017980093420DD03B683F4A934209D03B683E4A8A
:1017A800934205D03D4A2F4B1100180000F09AF8DB
:1017B8003B689BB21B0A9BB2BB603B68FF2213408D
:1017C8007B6101227B699A4013007B61BB68012B16
:1017D80005D17B681A687B6913407B610DE0BB68A3
:1017E800022B05D17B685A687B6913407B6104E052
:1017F8007B689A687B6913407B613B681B0CFB60C4
:101808000122FB689A401300FB607B68DA69FB6879
:101818001340FB607B69002B07D0FB68002B04D0CA
:101828001323FB1801221A7003E01323FB1800226C
:101838001A701323FB181B781800BD4606B080BD2C
:10184800003801400044004000480040004C00407F
:10185800005000400014014000180140001C0140E5
:1018680017080000542600080701070006010600B3
:101878000501050004010400060208000A03090026
:101888000003030000030200000301001A010B001B
:101898001B010C000E0111001603140018080000AB
:1018A80080B582B000AF7860FEE7000080B582B0F6
:1018B80000AF024B7B600120FFF7F2FF882600088B
:1018C80080B582B000AF786039607B6801221A6009
:1018D8003B68034A1A60C046BD4602B080BDC04698
:1018E8001400002080B584B000AF78603960024BE6
:1018F800FB60FFF7DBFFC046E026000880B500AFBD
:1019080000F00AF8C046BD4680BD80B500AF00F0C3
:1019180049F8C046BD4680BD80B500AF1B4B1A686C
:101928001A4B01210A431A60184B5A68174B184979
:101938000A405A60154B1A68144B16490A401A6037
:10194800124B1A68114B14490A401A600F4B5A6817
:101958000E4B12490A405A600C4BDA6A0B4B0F21A6
:101968008A43DA62094B1A6B084B0D490A401A631D
:10197800064B5A6B054B01218A435A63034B0022DD
:101988009A6000F07FF8C046BD4680BD0010024056
:101998000CB8FFF8FFFFF6FEFFFFFBFFFFFFC0FFDD
:1019A800ACFEFFFF80B584B000AF0023FB600023CE
:1019B800BB6000237B6000233B602E4B5B680C22DE
:1019C8001340FB60FB68042B07D0082B09D0002BC1
:1019D80038D1294B294A1A6038E0274B274A1A6020
:1019E80034E0244B5A68F0239B031340BB60214B1F
:1019F8005A68C0235B0213407B60BB689B0C0233B0
:101A0800BB607B68002B0CD1B9680A005201521ADE
:101A180093019B1ADB005B181B021A00164B1A6015
:101A280014E0144BDB6A0F22134001333B60396822
:101A3800124800F031FD03001A00BB685A430E4BF0
:101A48001A6003E00C4B0D4A1A60C046094B5B68EC
:101A58001B090F2213400A4AD35CDBB2FB60064B1A
:101A68001A68FB68DA40044B1A60C046BD4604B0E9
:101A780080BDC046001002401C00002000127A0001
:101A88002000002080B582B000AF00237B600023D7
:101A98003B60314B1A68304B802149020A431A6077
:101AA8002D4B1A6880239B0213403B607B680133EF
:101AB8007B603B68002B04D17A68A023DB019A4243
:101AC800EED1254B1A6880239B02134002D00123D4
:101AD8003B6001E000233B603B68012B38D11F4B82
:101AE80011221A601C4A1C4B52685A601A4A1A4B37
:101AF80052685A60184B5A68174B19490A405A607D
:101B0800154B5A68144B882149030A435A60124BF3
:101B18001A68114B802149040A431A60C0460E4BCB
:101B28001A6880239B041340F9D00B4B5A680A4B60
:101B380003218A435A60084B5A68074B02210A431B
:101B48005A60C046044B5B680C221340082BF9D13D
:101B5800C046BD4602B080BD0010024000200240D1
:101B6800FF7FC0FF80B582B000AF0200FB1D1A7076
:101B7800FB1D1B781A001F231A40044B01219140BA
:101B88000A001A60C046BD4602B080BD00E100E010
:101B980090B583B000AF02003960FB1D1A70FB1DC1
:101BA8001B787F2B32D92F4AFB1D1B7819000F2376
:101BB8000B40083B9B0806339B00D31804331B6873
:101BC800FA1D1278110003220A40D200FF21914029
:101BD8000A00D2431A4011003B689B01FF221A40B9
:101BE800FB1D1B78180003230340DB009A401D48A7
:101BF800FB1D1B781C000F232340083B9B080A434E
:101C080006339B00C31804331A6027E0164AFB1DED
:101C18001B785BB29B08C0339B009B58FA1D127857
:101C2800110003220A40D200FF2191400A00D2434A
:101C38001A4011003B689B01FF221A40FB1D1B78CC
:101C4800180003230340DB009A400748FB1D1B785C
:101C58005BB29B080A43C0339B001A50C046BD467E
:101C680003B090BD00ED00E000E100E080B582B077
:101C780000AF00F0A5F800F003F900F05BF800F001
:101C88003FF800F02BF900F0CBF8164B01221A7040
:101C9800154B9B8A9BB2144A02210B439BB2938239
:101CA80000F008FA00237B6002E07B6801337B6068
:101CB8007B680E4A9342F8DD0D490E4B012218004D
:101CC800FFF728FC0C4B1B889BB23B600B4B1B8817
:101CD8009BB2180000F050FA3B68180000F0FAF9BF
:101CE800F0E7C0463F000020000400480F2700002E
:101CF8000501050000380140400000204E0000208A
:101D080080B500AF094B5A69084B8021C9020A43C4
:101D18005A61074B1A68064B05210A431A60044B9F
:101D280000229A82C046BD4680BDC04600100240CF
:101D38000004004880B500AF1E4B5A691D4B802136
:101D480089020A435A619023DB051A689023DB0550
:101D580003218A431A609023DB05DA689023DB05A8
:101D680001210A43DA60134B9A69124B01210A4395
:101D78009A61114A104B92689A60104B1A680F4B7F
:101D880001210A431A600D4B9A680C4B01210A4342
:101D98009A600A4BDA68094B01210A43DA6000218C
:101DA8001420FFF7F5FE0520FFF7DCFEC046BD4610
:101DB80080BDC04600100240000001400004014000
:101DC80080B500AF134BDA69124B802149000A43F2
:101DD800DA61114B114A1A850F4BF422FF32DA628D
:101DE8000D4B9B899BB20C4A01210B439BB29381FB
:101DF800094B1B889BB2084A01210B439BB21380F5
:101E080002211420FFF7C4FE1320FFF7ABFEC046E3
:101E1800BD4680BD0010024000200040E7030000DE
:101E280080B500AF134B9A69124B802149020A43CF
:101E38009A61114B09221A850F4B104ADA620E4B30
:101E48009B899BB20C4A01210B439BB293810A4B9D
:101E58001B889BB2084A01210B439BB213800021C7
:101E68001420FFF795FE1420FFF77CFEC046BD4600
:101E780080BDC046001002400040014054D0000020
:101E880080B500AF134B9A69124B802189020A432F
:101E98009A61114B00221A850F4B2F22DA620E4BE2
:101EA8009B899BB20C4A01210B439BB293810A4B3D
:101EB8001B889BB2084A01210B439BB21380012166
:101EC8001420FFF765FE1520FFF74CFEC046BD46FF
:101ED80080BDC046001002400044014090B589B062
:101EE80000AF9023DB055A6A9023DB0510210A43D3
:101EF8005A629023DB055A6A9023DB05802149004A
:101F08000A435A629023DB051A689023DB05802177
:101F180009030A431A609023DB051A689023DB053E
:101F2800802189030A431A609023DB059B889AB2B3
:101F38009023DB053B490A4092B29A809023DB0547
:101F48009B889AB29023DB0537490A4092B29A805F
:101F58009023DB059A689023DB05C02109030A4317
:101F68009A609023DB059A689023DB05C0218903DA
:101F78000A439A609023DB05DA689023DB05802109
:101F8800C9020A43DA609023DB05DA689023DB058F
:101F9800802149030A43DA60244B9A69234B802144
:101FA800C9010A439A6108217B18E12252021A608A
:101FB8000C003B1900225A603B1900229A603B1919
:101FC8000022DA603B1900225A613B190C221A617F
:101FD8003B1D1B221A703B1D01225A703B1D01221A
:101FE8009A703B1D1800FEF7DDFD3B19104A1900D9
:101FF8001000FEF7FBFF0E4B01211800FFF766F9F2
:1020080000F01AF80A4B012280211800FFF70CFA99
:10201800084B01211800FEF771FBC046BD4609B008
:1020280090BDC046FFFDFFFFFFFBFFFF0010024011
:10203800003801401C00024080B58CB000AF01217F
:102048000120FEF791FF184B1800FEF739F93B1DE8
:10205800164A1A60164A3B1D5A603B1D10229A60A8
:102068003B1D00221A623B1D0522DA603B1D00223F
:102078009A613B1D0022DA613B1D80225A613B1D9B
:1020880000221A613B1D00229A623B1D80229201A8
:102098005A623B1D044A19001000FEF70BFAC046AD
:1020A800BD460CB080BDC0461C0002402838014027
:1020B8005000002080B500AFC046054B1B780122B8
:1020C8005340DBB2002BF8D1C046BD4680BDC046A8
:1020D8003E00002080B584B000AF7860214B1B889B
:1020E8009BB21A007B68D31A180000F061FA03004B
:1020F800BB60BB68002B02D11B4BFB600DE0BB68CB
:10210800862B02D92F23FB6007E0B968FA23580110
:1021180000F0C2F90300013BFB60144BFA68DA6275
:10212800104B1B889BB21A007B6893420BD2104B52
:1021380000221A700F4B9B8A9BB20E4A02218B43D6
:102148009BB293820AE00A4B01221A70094B9B8AC0
:102158009BB2084A02210B439BB29382C046BD46FC
:1021680004B080BD300000207F2500000020004022
:102178003F0000200004004880B586B000AF020090
:10218800BB1D1A80A0233B61BB1D1A883B69D31A6B
:10219800180000F00DFA02000E217B181A802F4B50
:1021A8001B889BB2BB607B181B88182B1CD8BB1DD7
:1021B8001B883A699A420BDA0E23FB181B88DB1836
:1021C80099B2BB689AB21623FB188A181A802BE0BA
:1021D800BB6899B20E23FB181B88DB189AB216232A
:1021E800FB188A1A1A801FE0BB1D1B883A699A429D
:1021F8000DDA0E23FB181B881A1C9218D31899B2F3
:10220800BB689AB21623FB188A181A800CE0BB68C0
:1022180099B20E23FB181B881A1C9218D3189AB26D
:102228001623FB188A1A1A801623FB181B880C4AD7
:1022380093420AD81623FB181B88002B05D0094B9C
:102248001622BA1812881A8003E01623FB180022F7
:102258001A80C046BD4606B080BDC046400000207A
:10226800AF0400003000002080B500AF214B1B7880
:10227800DBB25A1E9341DBB201225340DBB21A1C77
:1022880001231340DAB21B4B1A701A4B1B78DBB2CE
:10229800002B1BD0184B1B78002B07D0174B1B8823
:1022A8009BB2013B9AB2154B1A8006E0134B1B8870
:1022B8009BB201339AB2114B1A80114B9B8A9BB285
:1022C8000F4A01210B439BB2938207E00C4B9B8A78
:1022D8009BB20B4A01218B439BB29382094B1B8A09
:1022E8009BB2084A01218B439BB21382C046BD466C
:1022F80080BDC0463D0000203F0000204000002077
:10230800000400480020004080B582B000AF214B97
:102318001B889AB23B1D1A803B1D1A781E4B1A70F7
:102328003B1D5A781C4B5A701C4B1B683B603B008A
:102338001A78194B9A703B005A78174BDA703B00A1
:102348009A78154B1A713B00DA78134B5A71202092
:10235800FEF7B4FA031E11D0114B00211800FEF746
:10236800CDF92020FEF7F0FB0D4B06211800FEF7F3
:1023780045FA0B4B01211800FEF7C0F9094B1B8ADF
:102388009BB2084A01218B439BB21382C046BD46CB
:1023980002B080BD40000020500000204400002012
:1023A8001C0002400040014080B500AF074B1B688D
:1023B8005A1C064B1A60064B1B8A9BB2044A012121
:1023C8008B439BB21382C046BD4680BD44000020AB
:1023D8000044014080B500AF0C4B1B7801225340EC
:1023E800DBB2002B08D0094B01221A70084B0022DF
:1023F8001A80084B00221A60074B5A69064B0121C4
:102408000A435A61C046BD4680BDC0463E00002012
:1024180040000020440000200004014080B582B044
:1024280000AF184A184B11001800FFF74DF9031EAA
:1024380024D0154B1800FEF7AFFF03001900134B0B
:102448001B781A00C9B2124B9954104B1B780133F0
:10245800DAB20E4B1A700D4B1B78012B0ED90B4BB1
:1024680000221A700A4B1A783B1D5A70084B5A788A
:102478003B1D1A707B689AB2064B1A80C046BD464F
:1024880002B080BD0501050000380140420000206F
:10249800580000204E000020002243088B4274D3CD
:1024A80003098B425FD3030A8B4244D3030B8B424D
:1024B80028D3030C8B420DD3FF22090212BA030C56
:1024C8008B4202D31212090265D0030B8B4219D337
:1024D80000E0090AC30B8B4201D3CB03C01A524157
:1024E800830B8B4201D38B03C01A5241430B8B429F
:1024F80001D34B03C01A5241030B8B4201D30B0388
:10250800C01A5241C30A8B4201D3CB02C01A5241AE
:10251800830A8B4201D38B02C01A5241430A8B4271
:1025280001D34B02C01A5241030A8B4201D30B025A
:10253800C01A5241CDD2C3098B4201D3CB01C01A74
:10254800524183098B4201D38B01C01A524143097E
:102558008B4201D34B01C01A524103098B4201D36C
:102568000B01C01A5241C3088B4201D3CB00C01AD9
:10257800524183088B4201D38B00C01A5241430851
:102588008B4201D34B00C01A5241411A00D2014676
:10259800524110467047FFE701B5002000F006F8E9
:1025A80002BDC0460029F7D076E770477047C0469D
:1025B800C317C018584070472E2E2F73797374654F
:1025C8006D2F7372632F73746D333266302D73748D
:1025D800647065726970682F73746D333266307811
:1025E800785F646D612E63002E2E2F737973746586
:1025F8006D2F7372632F73746D333266302D73745D
:10260800647065726970682F73746D3332663078E0
:10261800785F6D6973632E63000000002E2E2F73A0
:10262800797374656D2F7372632F73746D333266AB
:10263800302D7374647065726970682F73746D33AC
:1026480032663078785F7263632E63002E2E2F73A4
:10265800797374656D2F7372632F73746D3332667B
:10266800302D7374647065726970682F73746D337C
:1026780032663078785F75736172742E630000007B
:1026880061626F727428292C2065786974696E6795
:102698002E2E2E002C2066756E6374696F6E3A209C
:1026A8000000000000000000617373657274696FB8
:1026B8006E2022257322206661696C65643A206663
:1026C800696C6520222573222C206C696E65202593
:1026D80064257325730A00006173736572745F70F3
:1026E8006172616D2829206661696C65643A2066AB
:1026F800696C6520222573222C206C696E65202563
:03270800640A0060
:10270C007856341200000000010203040102030495
:10271C00060708093C00002000000000006CDC02E9
:10272C000000000000000000010203040607080975
:08273C002C01FFFF32547698D6
:04000005080000C52A
:00000001FF
