:020000040800F2
:1000000000200020410200084902000851020008B7
:1000100000000000000000000000000000000000E0
:10002000000000000000000000000000790200084D
:1000300000000000000000008102000889020008A2
:100040009902000899020008990200089902000824
:100050009902000815250008990200089902000875
:100060009902000899020008990200089902000804
:1000700099020008990200089902000899020008F4
:100080009902000899020008000000004D230008B2
:1000900005240008A5240008D124000899020008BE
:1000A000990200089902000899020008F925000841
:1000B00099020008000000009902000800000000FA
:1000C0005FF808F180B58EB000AF01F01BFC4A4B21
:1000D0004A4A1A604A4B494A1A604A4B3B634A4BA8
:1000E000FB624A4BBB62FB6A7B6207E03A6B131D03
:1000F0003B637B6A191D796212681A60BA6A7B6A6F
:100100009A42F3D83C4B1B68414A934204D13C4B82
:100110001B68404A934200D0FEE73F4B374A1A60C3
:100120003E4B364A1A603E4B3B623E4BFB613B6A9C
:10013000BB6104E0BB691A1DBA6100221A60FA694A
:10014000BB699A42F6D8344B1B68002B03D1334B62
:100150001B68002B00D0FEE701F0DBFB3A003B1DE3
:100160001100180001F0B0FB2F4A304BD31A9B103E
:10017000FB600023BB6007E02C4BBA689200D358A9
:100180009847BB680133BB60FA68BB689A42F3DCEE
:10019000274A284BD31A9B10FB600023BB6007E063
:1001A000244BBA689200D3589847BB680133BB60B0
:1001B000FA68BB689A42F3DC7B683A681100180061
:1001C00001F058FD03007B631B4A1C4BD31A9B10A4
:1001D0007B617B693B6108E03B695A1E174B9200CB
:1001E000D35898473B69013B3B613B69002BF3DCEB
:1001F0007B6B180001F058FB00000020BABADECA81
:10020000340000202C3F00080000002038000020AF
:100210007856341232547698380000205C00002062
:100220003800002060000020C8020008C802000852
:10023000C8020008C8020008C8020008C802000876
:1002400080B500AFFFF73EFF80B500AF00BEFEE710
:1002500004207146084202D0EFF3098001E0EFF379
:10026000088071460B4A1047C04680B582B000AF87
:100270007860396000BEFEE780B500AF00BEFEE7E3
:1002800080B500AF00BEFEE780B500AFC046BD46FA
:1002900080BD00006B02000880B500AF00BEFEE725
:1002A0002C3F000800000020380000202C3F0008F0
:1002B0000000000000000000380000206000002066
:0802C000000000000000000036
:1002C80080B582B000AF78607B686A4A934230D0CC
:1002D8007B68694A93422CD07B68684A934228D04D
:1002E8007B68674A934224D07B68664A934220D051
:1002F8007B68654A93421CD07B68644A934218D055
:100308007B68634A934214D07B68624A934210D058
:100318007B68614A93420CD07B68604A934208D05C
:100328007B685F4A934204D05E4B8C21180001F031
:10033800D9FA7B681B685C4A1A407B681A607B683C
:1003480000221A607B6800225A607B6800229A604B
:100358007B680022DA607B68464A934206D1534B99
:100368005A68524B0F210A435A607FE07B68424A21
:10037800934206D14D4B5A684C4BF0210A435A60C0
:1003880074E07B683D4A934207D1484B5A68474B13
:10039800F02109010A435A6068E07B68384A9342B1
:1003A80007D1424B5A68414BF02109020A435A606F
:1003B8005CE07B68334A934207D13C4B5A683B4B1D
:1003C800F02109030A435A6050E07B682E4A9342A1
:1003D80007D1364B5A68354BF02109040A435A6055
:1003E80044E07B68294A934207D1304B5A682F4B27
:1003F800F02109050A435A6038E07B68244A934291
:1004080006D12B4B5A682A4B0F210A435A602DE01C
:100418007B68204A934206D1254B5A68244BF02129
:100428000A435A6022E07B681B4A934207D1204B5B
:100438005A681F4BF02109010A435A6016E07B688D
:10044800164A934207D11A4B5A68194BF0210902F0
:100458000A435A600AE07B68114A934206D1144B5A
:100468005A68134BF02109030A435A60C046BD4637
:1004780002B080BD080002401C000240300002406B
:1004880044000240580002406C00024080000240D4
:10049800080402401C0402403004024044040240A4
:1004A80058040240A03D0008FEFF00000000024082
:1004B8000004024080B584B000AF78603960002342
:1004C800FB607B687E4A934230D07B687D4A9342CA
:1004D8002CD07B687C4A934228D07B687B4A934225
:1004E80024D07B687A4A934220D07B68794A934229
:1004F8001CD07B68784A934218D07B68774A93422D
:1005080014D07B68764A934210D07B68754A934230
:100518000CD07B68744A934208D07B68734A934234
:1005280004D0734BEE21180001F0DCF93B689B689E
:10053800002B08D03B689B68102B04D06C4BEF2134
:10054800180001F0CFF93B68DB68002B04D03B684A
:10055800DB68684A934204D9654BF021180001F022
:10056800C1F93B681B69002B08D03B681B69402B0D
:1005780004D05F4BF121180001F0B4F93B685B69C6
:10058800002B08D03B685B69802B04D0584BF221C4
:10059800180001F0A7F93B689B69002B10D03B6855
:1005A8009A6980235B009A420AD03B689A69802343
:1005B8009B009A4204D04E4BF321180001F092F9A7
:1005C8003B68DB69002B10D03B68DA698023DB00CD
:1005D8009A420AD03B68DA6980231B019A4204D008
:1005E800434BF421180001F07DF93B681B6A002B8E
:1005F80008D03B681B6A202B04D03D4BF52118001E
:1006080001F070F93B685A6AC0239B019A4214D0E2
:100618003B685A6A80239B019A420ED03B685A6A0B
:1006280080235B019A4208D03B685B6A002B04D0A8
:100638002F4BF621180001F055F93B689B6A002BF7
:100648000AD03B689A6A8023DB019A4204D0284B7F
:10065800F721180001F046F97B681B68FB60FB680E
:10066800254A1340FB603B689A683B681B6A1A433B
:100678003B681B691A433B685B691A433B689B6983
:100688001A433B68DB691A433B685B6A1A433B6859
:100698009B6A1343FA681343FB607B68FA681A6025
:1006A8003B68DA687B685A603B681A687B689A60BE
:1006B8003B685A687B68DA60C046BD4604B080BDB6
:1006C800080002401C000240300002404400024082
:1006D800580002406C0002408000024008040240BA
:1006E8001C04024030040240440402405804024002
:1006F800A03D0008FFFF00000F80FFFF80B582B01B
:1007080000AF78600A00FB1C1A707B682D4A934280
:1007180032D07B682C4A93422ED07B682B4A934276
:100728002AD07B682A4A934226D07B68294A93427A
:1007380022D07B68284A93421ED07B68274A93427E
:100748001AD07B68264A934216D07B68254A934282
:1007580012D07B68244A93420ED07B68234A934286
:100768000AD07B68224A934206D0A6235A00214B1E
:100778001100180001F0B6F8FB1C1B78002B0BD0F9
:10078800FB1C1B78012B07D04E23FF331A00194B93
:100798001100180001F0A6F8FB1C1B78002B06D0EE
:1007A8007B681B6801221A437B681A6005E07B6836
:1007B8001B68114A1A407B681A60C046BD4602B0E1
:1007C80080BDC046080002401C00024030000240C4
:1007D80044000240580002406C0002408000024081
:1007E800080402401C040240300402404404024051
:1007F80058040240A03D0008FEFF000080B582B00A
:1008080000AF78600A00BB1C1A807B681E4A9342BE
:1008180032D07B681D4A93422ED07B681C4A934293
:100828002AD07B681B4A934226D07B681A4A934297
:1008380022D07B68194A93421ED07B68184A93429B
:100848001AD07B68174A934216D07B68164A93429F
:1008580012D07B68154A93420ED07B68144A9342A3
:100868000AD07B68134A934206D0D1235A00124B10
:100878001100180001F036F8BB1C1A887B685A6012
:10088800C046BD4602B080BD080002401C000240C0
:100898003000024044000240580002406C00024010
:1008A80080000240080402401C0402403004024058
:1008B8004404024058040240A03D000880B584B0BA
:1008C80000AF78600F23FB1800221A700023BB606A
:1008D8007B68012B00D1E9E07B68022B00D1E5E0C1
:1008E8007B68042B00D1E1E07B68082B00D1DDE0B8
:1008F8007B68102B00D1D9E07B68202B00D1D5E094
:100908007B68402B00D1D1E07B68802B00D1CDE003
:100918007A6880235B009A4200D1C7E07A68802316
:100928009B009A4200D1C1E07A688023DB009A429A
:1009380000D1BBE07A6880231B019A4200D1B5E060
:100948007A6880235B019A4200D1AFE07A688023FD
:100958009B019A4200D1A9E07A688023DB019A4280
:1009680000D1A3E07A6880231B029A4200D19DE05F
:100978007A6880235B029A4200D197E07A688023E4
:100988009B029A4200D191E07A688023DB029A4266
:1009980000D18BE07A6880231B039A4200D185E05E
:1009A8007A6880235B039A4200D17FE07A688023CB
:1009B8009B039A4200D179E07A688023DB039A424C
:1009C80000D173E07A6880231B049A4200D16DE05D
:1009D8007A6880235B049A4200D167E07A688023B2
:1009E8009B049A4200D161E07A688023DB049A4232
:1009F80000D15BE07A6880231B059A4256D07B6859
:100A08003A4A934252D07B68394A93424ED07B6827
:100A1800384A93424AD07B68374A934246D07B682B
:100A2800364A934242D07B68354A93423ED07B682F
:100A3800344A93423AD07B68334A934236D07B6833
:100A4800324A934232D07B68314A93422ED07B6837
:100A5800304A93422AD07B682F4A934226D07B683B
:100A68002E4A934222D07B682D4A93421ED07B683F
:100A78002C4A93421AD07B682B4A934216D07B6843
:100A88002A4A934212D07B68294A93420ED07B6847
:100A9800284A93420AD07B68274A934206D0952376
:100AA8009A00264B1100180000F01CFF7A6880237A
:100AB8005B05134003D0224B1B68BB6002E0214B4F
:100AC8001B68BB60BB687A68134004D00F23FB180F
:100AD80001221A7003E00F23FB1800221A700F235B
:100AE800FB181B781800BD4604B080BD010000103B
:100AF8000200001004000010080000101000001090
:100B080020000010400000108000001000010010BC
:100B1800000200100004001000080010001000106F
:100B2800002000100040001000800010000001109C
:100B3800000002100000041000000810A03D00088A
:100B4800000402400000024080B582B000AF786027
:100B58007B681B0F1B0703D07B680E4A134002D12A
:100B68007B68002B06D1AC239A000B4B11001800B0
:100B780000F0B8FE7A6880235B05134003D0074B6A
:100B88007A685A6002E0064B7A685A60C046BD46E9
:100B980002B080BD0000F0EFA03D00080004024054
:100BA8000000024080B584B000AF78600023FB608D
:100BB8007B689B78002B08D07B689B78012B04D03E
:100BC8002D4B5221180000F08DFE7B685B78032BBB
:100BD80004D9294B5321180000F084FE7B689B78C8
:100BE800002B39D0254A7B681B789B08DBB2C033C1
:100BF8009B009B58FB607B681B781A0003231340FB
:100C0800DB00FF229A401300DA43FB681340FB60C5
:100C18007B685B789B01FF221A407B681B78190070
:100C280003230B40DB009A401300FA681343FB6070
:100C380012497B681B789B08DBB2C0339B00FA68BB
:100C48005A507B681B781A001F231A400B4B01214E
:100C580091400A001A600AE07B681B781A001F237B
:100C68001340064901229A40130080228B50C04647
:100C7800BD4604B080BDC046D03D000800E100E09C
:100C880080B588B000AF78600023BB6100237B612A
:100C980000233B610023FB600023BB600023FB6152
:100CA800AB4B5B680C221340BB61BB69042B0CD0B7
:100CB80002D8002B05D041E0082B0AD00C2B39D0E4
:100CC8003CE07B68A34A1A603CE07B68A14A1A6052
:100CD80038E09F4B5A68F0239B0313407B619C4B81
:100CE8005A68C0235B0213403B617B699B0C02334B
:100CF8007B613B69002B0AD179690A005201521ABB
:100D080093019B1ADB005B181B02FB610EE0904B02
:100D1800DB6A0F2213400133FB60F9688D4801F04C
:100D2800B1FC03001A007B695343FB617B68FA69D5
:100D38001A6007E07B68884A1A6003E07B68854A86
:100D48001A60C046824B5B68F0221340BB61BB69E6
:100D58001B09BB61814ABB69D3181B78DBB2BB6036
:100D68007B681A68BB68DA407B685A60784B5A68B7
:100D7800E023DB001340BB61BB691B0ABB61774AF8
:100D8800BB69D3181B78DBB2BB607B685A68BB6849
:100D9800DA407B689A606E4B1A6B80235B001A40BE
:100DA80080235B009A4203D07B686D4ADA6013E0C7
:100DB800674B5A688023DB011A408023DB019A4283
:100DC80005D07B689B685A087B68DA6004E07B681A
:100DD8009B689A087B68DA605D4B1B6B4022134066
:100DE800402B03D07B685F4A1A6103E07B6880224E
:100DF80012021A61564B1B6B10221340102B03D0A2
:100E08007B68544A5A6103E07B681A687B685A61B8
:100E18004F4B1B6B0322134004D17B689A687B6895
:100E28009A611EE04A4B1B6B03221340012B04D12D
:100E38007B681A687B689A6113E0454B1B6B032239
:100E48001340022B04D17B68802212029A6108E0C9
:100E58003F4B1B6B03221340032B02D17B683D4A97
:100E68009A613B4B1A6BC0239B02134004D17B68E9
:100E78009A687B68DA6127E0354B1A6BC0239B02BE
:100E88001A4080235B029A4204D17B681A687B6807
:100E9800DA6119E02E4B1A6BC0239B021A4080239B
:100EA8009B029A4204D17B6880221202DA610BE02D
:100EB800274B1A6BC0239B021A40C0239B029A42FD
:100EC80002D17B68234ADA61214B1A6BC0231B03CA
:100ED800134004D17B689A687B681A6227E01C4B30
:100EE8001A6BC0231B031A408023DB029A4204D1E9
:100EF8007B681A687B681A6219E0154B1A6BC02365
:100F08001B031A4080231B039A4204D17B6880226A
:100F180012021A620BE00E4B1A6BC0231B031A4015
:100F2800C0231B039A4202D17B680A4A1A62084B03
:100F38001B6B80221340802B03D07B68064A5A62C1
:100F480002E07B68FA695A62C046BD4608B080BDB7
:100F58000010024000127A00006CDC02040000203D
:100F6800809FD5001280000080B582B000AF786005
:100F78000A00FB1C1A707B68174A134002D17B6871
:100F8800002B05D1154A164B1100180000F0AAFCD9
:100F9800FB1C1B78002B09D0FB1C1B78012B05D0F0
:100FA800104A0F4B1100180000F09CFCFB1C1B782A
:100FB800002B06D00C4B59690B4B7A680A435A61CF
:100FC80006E0094B5A697B68D943074B0A405A61C6
:100FD800C046BD4602B080BDA8FF81FE5605000090
:100FE800043E0008570500000010024080B590B08C
:100FF80000AF786039600023FB630023BB630023E4
:101008007B637B68A24A934220D07B68A14A9342C3
:101018001CD07B68A04A934218D07B689F4A9342B1
:1010280014D07B689E4A934210D07B689D4A9342B5
:101038000CD07B689C4A934208D07B689B4A9342B9
:1010480004D09B4BF221180000F04CFC3B681B6855
:10105800002B04D03B681B68964A934204D9944BF2
:10106800F321180000F03EFC3B685B68002B0FD0B2
:101078003B685A6880235B019A4209D03B685B68E9
:101088008D4A934204D08A4BF421180000F02AFCC0
:101098003B689B68002B10D03B689A6880239B01B3
:1010A8009A420AD03B689A68C0239B019A4204D0AE
:1010B8007F4BF521180000F015FC3B68DB68002B1E
:1010C80010D03B68DA688023DB009A420AD03B687C
:1010D800DA68C023DB009A4204D0754BF621180069
:1010E80000F000FC3B681B690C22934303D13B686A
:1010F8001B69002B04D16E4BF721180000F0F2FB9E
:101108003B685B69002B16D03B685A6980235B00FB
:101118009A4210D03B685A6980239B009A420AD0B1
:101128003B685A69C0239B009A4204D0604BF8215F
:10113800180000F0D7FB7B681B68012293431A0054
:101148007B681A607B685B687B637B6B5B4A1340D8
:101158007B633B689B687A6B13437B637B687A6B22
:101168005A607B681B687B637B6B554A13407B63C3
:101178003B685A683B68DB681A433B681B69134342
:101188007A6B13437B637B687A6B1A607B689B6816
:101198007B637B6B4B4A13407B633B685B697A6B71
:1011A80013437B637B687A6B9A600C23FB181800E7
:1011B800FFF766FD7B68364A934204D10C23FB187F
:1011C8009B69BB6315E07B68324A934204D10C23C8
:1011D800FB18DB69BB630CE07B682F4A934204D1A0
:1011E8000C23FB181B6ABB6303E00C23FB189B68EA
:1011F800BB637B681A6880231B02134014D0BB6B47
:101208005A003B681B681900100001F03BFA030004
:10121800FB63BB6B5A003B681B681900100001F0A8
:10122800B7FA0B007B6310E03B681B681900B86BCA
:1012380001F028FA0300FB633B681A68BB6B1100D6
:10124800180001F0A5FA0B007B633B681B685B087C
:101258007A6B9A4202D3FB6B0133FB637B681A6893
:1012680080231B0213400AD0FB6B5B080722134044
:101278007B63FB6B144A13407A6B1343FB63FB6B72
:101288009AB27B689A81C046BD4610B080BDC04600
:10129800003801400044004000480040004C004035
:1012A800005000400014014000180140001C01409B
:1012B800343E0008808D5B0000100010FFCFFFFF58
:1012C800F3E9FFFFFFFCFFFFF0FF000080B582B0ED
:1012D80000AF78600A00FB1C1A707B68254A9342AD
:1012E80022D07B68244A93421ED07B68234A9342CB
:1012F8001AD07B68224A934216D07B68214A9342CF
:1013080012D07B68204A93420ED07B681F4A9342D2
:101318000AD07B681E4A934206D0D6235A001D4B3A
:101328001100180000F0DEFAFB1C1B78002B0BD014
:10133800FB1C1B78012B07D0AE23FF331A00154B7B
:101348001100180000F0CEFAFB1C1B78002B06D009
:101358007B681B6801221A437B681A6006E07B6879
:101368001B68012293431A007B681A60C046BD4679
:1013780002B080BD003801400044004000480040F1
:10138800004C00400050004000140140001801408B
:10139800001C0140343E000880B582B000AF786080
:1013A8007B68184A934222D07B68174A93421ED022
:1013B8007B68164A93421AD07B68154A934216D026
:1013C8007B68144A934212D07B68134A93420ED02A
:1013D8007B68124A93420AD07B68114A934206D02E
:1013E800F2239A000F4B1100180000F07BFA7B687B
:1013F8009B8C9BB2DB05DB0D9BB21800BD4602B08F
:1014080080BDC0460038014000440040004800400C
:10141800004C0040005000400014014000180140FA
:10142800001C0140343E000880B584B000AFF8606D
:10143800B960FB1D1A70FB682B4A934222D0FB68E7
:101448002A4A93421ED0FB68294A93421AD0FB6865
:10145800284A934216D0FB68274A934212D0FB6869
:10146800264A93420ED0FB68254A93420AD0FB686D
:10147800244A934206D0D223DA00234B11001800E5
:1014880000F030FABB68C022934302D1BB68002B3E
:1014980005D11E4A1C4B1100180000F023FAFB1D51
:1014A8001B78002B09D0FB1D1B78012B05D0184A8F
:1014B800154B1100180000F015FAFB1D1B78002BC6
:1014C80006D0FB689A68BB681A43FB689A6006E016
:1014D800FB689B68BA68D2431A40FB689A60C046AA
:1014E800BD4604B080BDC0460038014000440040FD
:1014F80000480040004C00400050004000140140EB
:1015080000180140001C0140343E0008910600000C
:101518009206000080B588B000AFF860B960FB1D86
:101528001A700023BB6100237B6100233B61002309
:10153800FB61FB684E4A934221D0FB684D4A9342B7
:101548001DD0FB684C4A934219D0FB684B4A934222
:1015580015D0FB684A4A934211D0FB68494A934226
:101568000DD0FB68484A934209D0FB68474A93422A
:1015780005D0474A474B1100180000F0B3F9BA6884
:1015880084235B009A4232D0BB68434A93422ED0F0
:10159800BB68424A93422AD0BB68414A934226D04C
:1015A800BB68404A934222D0BB683F4A93421ED050
:1015B800BB683E4A93421AD0BA68C0239B009A423D
:1015C80015D0BB683A4A934211D0BB68394A934256
:1015D8000DD0BB68384A934209D0BB68374A93425A
:1015E80005D0374A2B4B1100180000F07BF9FB1D82
:1015F8001B78002B09D0FB1D1B78012B05D0314A25
:10160800244B1100180000F06DF9FB68FB61BB6802
:101618009BB21B0A9BB2BB61BB68FF2213407B6174
:1016280001227B699A4013003B61BB69022B03D1FD
:10163800FB690433FB6105E0BB69032B02D1FB693D
:101648000833FB61FB1D1B78002B06D0FB6919686A
:10165800FB693A690A431A6006E0FB691A683B6944
:10166800D943FB690A401A60C046BD4608B080BD30
:10167800003801400044004000480040004C004051
:10168800005000400014014000180140001C0140B7
:101698003C070000343E0008070107000601060069
:1016A8000501050004010400060208000A030900F8
:1016B8001A010B001B010C000E0111001603140087
:1016C8003D0700003E07000080B586B000AF786097
:1016D80039600023FB6000237B610023BB60132378
:1016E800FB1800221A707B68554A934221D07B6808
:1016F800544A93421DD07B68534A934219D07B6861
:10170800524A934215D07B68514A934211D07B6864
:10171800504A93420DD07B684F4A934209D07B6868
:101728004E4A934205D04E4A4E4B1100180000F025
:10173800D9F83A6884235B009A4239D03B684A4A10
:10174800934235D03B68494A934231D03B68484A76
:1017580093422DD03B68474A934229D03B68464A7A
:10176800934225D03B68454A934221D03B68444A7E
:1017780093421DD03B68434A934219D03B68424A82
:10178800934215D03B68414A934211D03B68404A86
:1017980093420DD03B683F4A934209D03B683E4A8A
:1017A800934205D03D4A2F4B1100180000F09AF8DB
:1017B8003B689BB21B0A9BB2BB603B68FF2213408D
:1017C8007B6101227B699A4013007B61BB68012B16
:1017D80005D17B681A687B6913407B610DE0BB68A3
:1017E800022B05D17B685A687B6913407B6104E052
:1017F8007B689A687B6913407B613B681B0CFB60C4
:101808000122FB689A401300FB607B68DA69FB6879
:101818001340FB607B69002B07D0FB68002B04D0CA
:101828001323FB1801221A7003E01323FB1800226C
:101838001A701323FB181B781800BD4606B080BD2C
:10184800003801400044004000480040004C00407F
:10185800005000400014014000180140001C0140E5
:1018680017080000343E00080701070006010600BB
:101878000501050004010400060208000A03090026
:101888000003030000030200000301001A010B001B
:101898001B010C000E0111001603140018080000AB
:1018A80080B582B000AF7860FEE7000080B582B0F6
:1018B80000AF024B7B600120FFF7F2FF683E000893
:1018C80080B582B000AF786039607B6801221A6009
:1018D8003B68034A1A60C046BD4602B080BDC04698
:1018E8001400002080B584B000AF78603960024BE6
:1018F800FB60FFF7DBFFC046C03E000880B500AFC5
:1019080000F00AF8C046BD4680BD80B500AF00F0C3
:1019180049F8C046BD4680BD80B500AF1B4B1A686C
:101928001A4B01210A431A60184B5A68174B184979
:101938000A405A60154B1A68144B16490A401A6037
:10194800124B1A68114B14490A401A600F4B5A6817
:101958000E4B12490A405A600C4BDA6A0B4B0F21A6
:101968008A43DA62094B1A6B084B0D490A401A631D
:10197800064B5A6B054B01218A435A63034B0022DD
:101988009A6000F07FF8C046BD4680BD0010024056
:101998000CB8FFF8FFFFF6FEFFFFFBFFFFFFC0FFDD
:1019A800ACFEFFFF80B584B000AF0023FB600023CE
:1019B800BB6000237B6000233B602E4B5B680C22DE
:1019C8001340FB60FB68042B07D0082B09D0002BC1
:1019D80038D1294B294A1A6038E0274B274A1A6020
:1019E80034E0244B5A68F0239B031340BB60214B1F
:1019F8005A68C0235B0213407B60BB689B0C0233B0
:101A0800BB607B68002B0CD1B9680A005201521ADE
:101A180093019B1ADB005B181B021A00164B1A6015
:101A280014E0144BDB6A0F22134001333B60396822
:101A3800124800F027FE03001A00BB685A430E4BF9
:101A48001A6003E00C4B0D4A1A60C046094B5B68EC
:101A58001B090F2213400A4AD35CDBB2FB60064B1A
:101A68001A68FB68DA40044B1A60C046BD4604B0E9
:101A780080BDC046001002401C00002000127A0001
:101A88002000002080B582B000AF00237B600023D7
:101A98003B60314B1A68304B802149020A431A6077
:101AA8002D4B1A6880239B0213403B607B680133EF
:101AB8007B603B68002B04D17A68A023DB019A4243
:101AC800EED1254B1A6880239B02134002D00123D4
:101AD8003B6001E000233B603B68012B38D11F4B82
:101AE80011221A601C4A1C4B52685A601A4A1A4B37
:101AF80052685A60184B5A68174B19490A405A607D
:101B0800154B5A68144B882149030A435A60124BF3
:101B18001A68114B802149040A431A60C0460E4BCB
:101B28001A6880239B041340F9D00B4B5A680A4B60
:101B380003218A435A60084B5A68074B02210A431B
:101B48005A60C046044B5B680C221340082BF9D13D
:101B5800C046BD4602B080BD0010024000200240D1
:101B6800FF7FC0FF80B582B000AF0200FB1D1A7076
:101B7800FB1D1B781A001F231A40044B01219140BA
:101B88000A001A60C046BD4602B080BD00E100E010
:101B980090B583B000AF02003960FB1D1A70FB1DC1
:101BA8001B787F2B32D92F4AFB1D1B7819000F2376
:101BB8000B40083B9B0806339B00D31804331B6873
:101BC800FA1D1278110003220A40D200FF21914029
:101BD8000A00D2431A4011003B689B01FF221A40B9
:101BE800FB1D1B78180003230340DB009A401D48A7
:101BF800FB1D1B781C000F232340083B9B080A434E
:101C080006339B00C31804331A6027E0164AFB1DED
:101C18001B785BB29B08C0339B009B58FA1D127857
:101C2800110003220A40D200FF2191400A00D2434A
:101C38001A4011003B689B01FF221A40FB1D1B78CC
:101C4800180003230340DB009A400748FB1D1B785C
:101C58005BB29B080A43C0339B001A50C046BD467E
:101C680003B090BD00ED00E000E100E080B582B077
:101C780000AF00F0B9F800F017F900F043F900F0F0
:101C880057F800F03BF800F063F900F0DDF8144B6A
:101C980001221A70134B9B8A9BB2124A02210B43F2
:101CA8009BB29382104B00221A7000F041FA002375
:101CB8007B6002E07B6801337B607B680B4A934260
:101CC800F8DD0B490B4B01221800FFF723FC0A4BE8
:101CD8001B889BB23B603B68180000F039FAF6E7B6
:101CE8003F000020000400483E0000200F270000AD
:101CF80005010500003801404000002080B500AF14
:101D0800094B5A69084B8021C9020A435A61074B9B
:101D18001A68064B15210A431A60044B00229A825E
:101D2800C046BD4680BDC0460010024000040048C1
:101D380080B500AF294B5A69284B802189020A4394
:101D48005A619023DB051A689023DB0503218A4337
:101D58001A609023DB05DA689023DB0501210A432A
:101D6800DA609023DB051A689023DB050C218A438F
:101D78001A609023DB05DA689023DB0504210A4307
:101D8800DA60164B9A69154B01210A439A61144A85
:101D9800134B92689A60124A114B92689A60114BE1
:101DA8001A68104B01210A431A600E4BDA680D4B72
:101DB80001210A43DA600B4B1A680A4B02210A43D5
:101DC8001A60084BDA68074B02210A43DA600520DB
:101DD800FFF7C8FEC046BD4680BDC04600100240A1
:101DE800000001400004014080B500AF134BDA69E0
:101DF800124B802149000A43DA61114B114A1A85B6
:101E08000F4BC722DA620E4B9B899BB20C4A012109
:101E18000B439BB293810A4B1B889BB2084A012152
:101E28000B439BB2138002211320FFF7B1FE13204E
:101E3800FFF798FEC046BD4680BDC0460010024070
:101E480000200040E703000080B500AF134B9A69FB
:101E5800124B802149020A439A61114B09221A85C3
:101E68000F4B104ADA620E4B9B899BB20C4A012138
:101E78000B439BB293810A4B1B889BB2084A0121F2
:101E88000B439BB2138000211420FFF781FE14201E
:101E9800FFF768FEC046BD4680BDC0460010024040
:101EA8000040014054D0000080B500AF134B9A6940
:101EB800124B802189020A439A61114B00221A852C
:101EC8000F4B5F22DA620E4B9B899BB20C4A0121B1
:101ED8000B439BB293810A4B1B889BB2084A012192
:101EE8000B439BB2138000211520FFF751FE1520EC
:101EF800FFF738FEC046BD4680BDC0460010024010
:101F08000044014080B500AF0D4B9A690C4B80210D
:101F1800C9020A439A610B4B0B4A1A85094B0B4AB3
:101F2800DA62084B9B899BB2064A01210B439BB29C
:101F380093811620FFF716FEC046BD4680BDC046F9
:101F48000010024000480140E7030000FF7601004E
:101F580090B589B000AF9023DB055A6A9023DB0562
:101F680010210A435A629023DB055A6A9023DB0545
:101F7800802149000A435A629023DB051A6890239E
:101F8800DB05802109030A431A609023DB051A68E0
:101F98009023DB05802189030A431A609023DB051F
:101FA8009B889AB29023DB053D490A4092B29A80F9
:101FB8009023DB059B889AB29023DB0539490A40B8
:101FC80092B29A809023DB059A689023DB05C021A2
:101FD80009030A439A609023DB059A689023DB057E
:101FE800C02189030A439A609023DB05DA689023AD
:101FF800DB058021C9020A43DA609023DB05DA6831
:102008009023DB05802149030A43DA60264B9A694D
:10201800254B8021C9010A439A6108217B18E122D6
:1020280052021A600C003B1900225A603B19002228
:102038009A603B190022DA603B1900225A613B1969
:102048000C221A613B1D1B221A703B1D01225A707B
:102058003B1D01229A703B1D1800FEF7A3FD0121CC
:102068001B20FFF795FD3B19104A19001000FEF7D9
:10207800BDFF0E4B01211800FFF728F900F01AF8F0
:102088000A4B012280211800FFF7CEF9084B0121E5
:102098001800FEF733FBC046BD4609B090BDC046E8
:1020A800FFFDFFFFFFFBFFFF00100240003801406B
:1020B8001C00024080B58CB000AF01210120FEF762
:1020C80053FF184B1800FEF7FBF83B1D164A1A6021
:1020D800164A3B1D5A603B1D10229A603B1D002288
:1020E8001A623B1D0522DA603B1D00229A613B1DE6
:1020F8000022DA613B1D80225A613B1D00221A61D1
:102108003B1D00229A623B1D802292015A623B1DB0
:10211800044A19001000FEF7CDF9C046BD460CB0C0
:1021280080BDC0461C0002402838014050000020F5
:1021380080B500AFC046054B1B78DBB20122534087
:10214800DBB2002BF7D1C046BD4680BD3E00002063
:1021580080B584B000AF7860214B1B889BB21A0011
:102168007B68D31A180001F013FE0300BB60BB683C
:10217800002B02D11B4BFB600DE0BB68862B02D9FC
:102188003B23FB6007E0B968C823580100F07AFADE
:102198000300013BFB60144BFA68DA62104B1B88A2
:1021A8009BB21A007B6893420BD2104B00221A7024
:1021B8000F4B9B8A9BB20E4A02218B439BB29382A0
:1021C8000AE00A4B01221A70094B9B8A9BB2084A03
:1021D80002210B439BB29382C046BD4604B080BD2A
:1021E800300000207F250000002000403F00002034
:1021F80000040048B0B586B000AF0200BB1D1A80CD
:102208004B4B1B78DBB2002B00D18CE0A0233B6149
:10221800BB1D1A883B69D31A180001F0B9FD0200EA
:102228000E217B181A80434B1B889BB2BB607B181E
:102238001B88312B48D8BB1D1B883A699A4221DA82
:10224800B86801F00FFC04000D000E23FB181B8872
:10225800180001F0CDFB0022374B00F0D9FD020039
:102268000B002000290000F0B7FA03000C001A0048
:10227800230016217C181000190000F08FFA0300C3
:1022880023803DE0B86801F0EDFB04000D000E234B
:10229800FB181B88180001F0ABFB0022264B00F04E
:1022A800B7FD02000B002000290001F023F803000D
:1022B8000C001A00230016217C181000190000F0E9
:1022C8006DFA030023801BE0BB1D1B883A699A4204
:1022D8000BDA0E23FB181B88DB1899B2BB689AB27D
:1022E8001623FB188A181A800AE0BB6899B20E23D5
:1022F800FB181B88DB189AB21623FB188A1A1A8057
:102308001623FB181B880D4A934209D81623FB187D
:102318001B88002B04D00A4B1622BA1812881A8080
:10232800034B00221A70C046BD4606B0B0BDC04679
:10233800560000204000002000000440AF040000C8
:102348003000002080B500AF274B1B78DBB25A1E47
:102358009341DBB201225340DBB21A1C0123134024
:10236800DAB2214B1A70204B1B78DBB2002B28D035
:102378001E4B1B78002B14D01D4B1B889BB2002BC7
:102388000FD01B4B1B889BB2013B9AB2184B1A808B
:10239800184B9B8A9BB2174A01210B439BB293822D
:1023A80017E0134B1B889BB201339AB2104B1A806B
:1023B800104B9B8A9BB20F4A01210B439BB293821D
:1023C80007E00C4B9B8A9BB20A4A01218B439BB2C4
:1023D8009382094B1B8A9BB2074A01218B439BB20C
:1023E8001382C046BD4680BD3D0000203F0000204E
:1023F80040000020000400480020004080B582B062
:1024080000AF214B1B889AB23B1D1A803B1D1A78DE
:102418001E4B1A703B1D5A781C4B5A701C4B1B687C
:102428003B603B001A78194B9A703B005A78174B5F
:10243800DA703B009A78154B1A713B00DA78134B27
:102448005A712020FEF73AFA031E11D0114B0021D1
:102458001800FEF753F92020FEF776FB0D4B0621F6
:102468001800FEF7CBF90B4B01211800FEF746F9CF
:10247800094B1B8A9BB2084A01218B439BB21382EA
:10248800C046BD4602B080BD40000020500000207C
:10249800440000201C0002400040014080B500AF0D
:1024A800074B1B685A1C064B1A60064B1B8A9BB2CB
:1024B800044A01218B439BB21382C046BD4680BDAE
:1024C800440000200044014080B500AF0D4B9B8ABA
:1024D8009BB20C4A04218B439BB293820A4B1B8804
:1024E8009BB2094A01218B439BB21380064B1B8A7E
:1024F8009BB2054A01218B439BB21382C046BD465D
:1025080080BDC046000400480048014080B500AFC7
:102518002E4B5B690122134026D02D4B1B78DBB272
:1025280001225340DBB2002B18D02A4B1B889BB2E8
:10253800284A01218B439BB21380274B00221A8023
:10254800234B01221A70254B00221A70214B1B883D
:102558009BB2204A01210B439BB213801B4B5A6943
:102568001A4B01210A435A61184B5B690222134036
:1025780028D01B4B1B889BB2194A01218B439BB265
:102588001380184B00221A60154B1B889BB2144A03
:1025980001210B439BB21380134B9B8A9BB2124AB7
:1025A80004210B439BB29382104B1B889BB20F4AAA
:1025B80001210B439BB21380044B5A69034B022140
:1025C8000A435A61C046BD4680BDC046000401406A
:1025D8003E00002000200040400000203F00002076
:1025E8000044014044000020000400480048014025
:1025F80080B582B000AF1E4A1E4B11001800FFF7CD
:1026080063F8031E30D01B4B1800FEF7C5FE03000D
:102618001900194B1B78DBB21A00C9B2174B995431
:10262800154B1B78DBB20133DAB2134B1A70124B1D
:102638001B78DBB2012B17D90F4B00221A700F4BF6
:102648001B78DAB23B005A700C4B5B78DAB23B006D
:102658001A700B4B01221A703A68BB1D1A80BB1DF9
:102668001B881800FFF7C6FDC046BD4602B080BDF6
:1026780005010500003801404200002058000020F4
:1026880056000020002243088B4274D303098B4272
:102698005FD3030A8B4244D3030B8B4228D3030C2A
:1026A8008B420DD3FF22090212BA030C8B4202D3CC
:1026B8001212090265D0030B8B4219D300E0090AF4
:1026C800C30B8B4201D3CB03C01A5241830B8B42FD
:1026D80001D38B03C01A5241430B8B4201D34B03E6
:1026E800C01A5241030B8B4201D30B03C01A52414B
:1026F800C30A8B4201D3CB02C01A5241830A8B42D0
:1027080001D38B02C01A5241430A8B4201D34B02B8
:10271800C01A5241030A8B4201D30B02C01A52411C
:10272800CDD2C3098B4201D3CB01C01A52418309D0
:102738008B4201D38B01C01A524143098B4201D30A
:102748004B01C01A524103098B4201D30B01C01A35
:102758005241C3088B4201D3CB00C01A52418308AF
:102768008B4201D38B00C01A524143088B4201D3DC
:102778004B00C01A5241411A00D20146524110463C
:102788007047FFE701B5002000F006F802BDC0461B
:102798000029F7D076E770477047C04670B5002229
:1027A8000C4B04000D0001F0C3F9002804D12000EF
:1027B800290001F0E7F870BD064B0022200029002F
:1027C80000F098FD01F0DEF880231B069C4660446B
:1027D800F1E7C0460000E041F0B54F464646D64610
:1027E8000C000903C0B5490A470F5E0039431F03AF
:1027F800DB0F9C4665007B0A570F1F436D0DE40FE6
:10280800760DA146C000B846D200AB1B64457BD00C
:10281800002B5FDD002E00D0A4E03E00164300D15F
:1028280012E15E1E002E00D09EE1871A4346B84290
:1028380080410125C91A4042091A0B0200D431E12E
:1028480049024E0A002E00D16EE1300001F07AF9FB
:102858000300083B1F2B00DD61E120223900D21A5A
:102868009E40D1409F400E439D4200DD51E15D1BDB
:102878006B1C1F2B00DD7CE12021C91A3D003000B4
:102888008F408840DD40791E8F4131000722284360
:10289800D940002507433A40002A09D00F233B407E
:1028A800042B05D03B1DBB42BF417F42C9191F0005
:1028B8000B0200D426E26A1CC64B55056D0D9A42E0
:1028C80000D106E1C44AFF080A40530752023B43BD
:1028D800120B8EE0002B00D0B8E06B1C5B055B0D83
:1028E800012B00DC30E1871A4346B842B641CB1AC7
:1028F80076429E1B330200D54CE13B003343A1D105
:1029080000220024002570E0002B00DCE5E0002E0A
:1029180000D183E0AF4EB54260D0802636043743FD
:10292800B846382B00DC3EE1434613431F007A1EAD
:1029380097413F1887428041404209180B0200D452
:10294800B0E0A44B01359D4200D1C3E0A24A7B0808
:102958000A4001210F401F435108D30707221F4394
:102968003A4099E79B4EB54238D080263604374323
:10297800B846382B00DDDCE01F2B00DC30E11E0000
:102988004746203EF740BC46202B04D04026F31A89
:1029980046469E403243170063467A1E97411F43BE
:1029A800CCE0002B00D104E24346134300D159E1A7
:1029B8004B07C00818438023C9081B03194208D0D5
:1029C8004546ED081D4204D14346D008590708433F
:1029D8002900420FC9007F4D1143C0004B07CA08A8
:1029E8007C49C00803438D4268D012036D05120B61
:1029F8006D0D002112031800130B0A0D12051A435E
:102A0800764B2D0513402B435B00E4075B082343FB
:102A180019001CBC90469946A246F0BD3E001643DC
:102A280012D05E1E002E00D000E187188742804138
:102A380041444042091801250B0233D5022585E798
:102A480064463300414610001D00C7E7002D00D042
:102A5800DAE00C000443F3D05C1C00D19FE15D4C2C
:102A6800A64200D12FE1DB43382B00DD66E11F2BA6
:102A780000DD83E120240500E41A0F00DD40D94081
:102A8800A0404346A7405B1A441EA04198462F43E6
:102A98003843171ABA42924143465242991A644639
:102AA8003500CAE607223A40002A00D0F6E64B076E
:102AB800CA084849FF083B438D4296D11900114383
:102AC80000D19EE1802109030A431203120B414DF4
:102AD8008FE71500002200238BE7002B00D0C7E00A
:102AE8006B1C5F057F0D012F00DCF1E0394DAB4217
:102AF80000D1B9E085180A0085428941424449421B
:102B080051180722CF076D082F4349083A401D0086
:102B1800C2E607223049ED1A31403A40BCE63E0091
:102B28002838864000279FE6380001F00BF820304F
:102B38008EE6434613431F007A1E9741C71BB842CF
:102B480080414042091A78E60E003B0006431343D1
:102B5800002D61D1002E00D0F4E0002B00D11BE144
:102B680064463900100039E71A4FBB427AD0330067
:102B7800FFE630001F3DE840202B03D04021CB1A50
:102B88009E4037437B1E9F41072207433A4000215E
:102B9800002589E7171A4346BA42B641591A7642C0
:102BA8008E1B64464EE61F2B00DDADE0202647460F
:102BB800F61AB740B9461700B246DF404E463E43C4
:102BC80037005646B240561EB24117434246DA40D5
:102BD8008918AEE6FF070000FFFF7FFFFFFF0F80A9
:102BE80020264746F61AB740B9461700B246DF40D6
:102BF8004E463E4337005646B240561EB241174332
:102C08004246DA40891A99E77F4CA6425BD0802475
:102C180024045B42214327E7002E0CD1002B00D16E
:102C2800CBE0644639001000774DD7E6764FBB42BB
:102C380018D0330075E6002B14D04B07C008184392
:102C48008023C9081B03194207D0FC081C4204D181
:102C58007907D0080843E14621004C46420FC900D5
:102C68001143C000684DB9E61D0000220023C0E6EC
:102C7800002D5BD10D00054300D1E2E65D1C00D1BB
:102C8800B0E0614DAE421FD0DB43382B71DC1F2B07
:102C980000DD96E020250F00ED1AAF40B946070089
:102CA800AA46DF404D463D432F005546A840D9402F
:102CB800451EA84188440743BF1897429241514294
:102CC800414435003AE6644635004146100085E641
:102CD8000B000343002D00D063E6002BF5D04346DC
:102CE800134300D17AE6871887428041072241447E
:102CF800404209183A400B0200D4D5E6434B01354F
:102D08001940C9E5380069E61E004746203EF740ED
:102D1800BC46202B04D04026F31A46469E40324338
:102D2800170063467A1E97411F4302E6364DAE42AE
:102D3800CAD080252D045B422943A6E70843411EDB
:102D48008841A6E6002B00D148E6871A4346B842D8
:102D5800B641CB1A76429E1B33024BD5171A43460F
:102D6800BA429241591A5242891A072264463A4095
:102D780092E501430F00791E8F419DE71C000F006B
:102D8800203CE740202B03D04024E31A9940084315
:102D9800411E884138437CE60022002425E6171AA4
:102DA8004346BA429241591A5242891A644635003A
:102DB80043E541461000144D10E68022002412031A
:102DC80080E61D000F00203DEF40BC46202B03D0BD
:102DD8004025EB1A9940084307006346781E87414F
:102DE8001F4369E7871897429B4141445B42C918D2
:102DF8003500A3E53B003343CED0072231003A40EB
:102E080052E600231A00F4E5FF070000FFFF7FFFEA
:102E1800F0B55746DE464E464546E0B583460600C1
:102E28000F03480087B092461D003F0B400DCC0FA2
:102E3800002800D16FE0DE4B984238D08023FF0095
:102E48001B041F43730F3B430193DA4B002799463A
:102E580000239B46F60081442B0369001B0B524656
:102E68009846490DED0F002900D185E0D04B9942D5
:102E780000D173E04346DA0080231B041343524613
:102E8800CC48520F84461343524600206144D20076
:102E980089442100694000918C46012149448A46B1
:102EA8000F2F00D990E0C449BF00CF59BF465B46F9
:102EB8003B43019300D06AE102230827002681469C
:102EC8009B46C9E732005846019B6146009102289B
:102ED80000D175E0032800D1FEE1012800D02CE1E3
:102EE80000230027002600253F032A0D3F0BB34887
:102EF80012053A4302401B051343009A5B00D107B1
:102F08005B080B433000190007B03CBC904699465B
:102F1800A246AB46F0BD5B463B43019300D12FE18F
:102F2800002F00D1A5E1380000F00CFE03000B3B98
:102F38001C2B00DD96E11D22D31A5A460100DA4007
:102F48005E4608398F4013008E403B4301939C4BEB
:102F580000271B1A994600239B467DE741465346A6
:102F68000B4393498C46E144002B00D01AE102221E
:102F78000220174300228CE7134300D10DE143469A
:102F8800002B00D181E1404600F0DCFD02000B3A45
:102F98001C2A00DD72E10100434608398B4098463F
:102FA8001D239A1A5346D3401A00434613435246E8
:102FB8008A404946081A824989468144002068E7C0
:102FC8007B4B002700268EE7140C1204120C11000C
:102FD800370C3604350C794328008C462E006043A4
:102FE8006044834656432100300C80465846794356
:102FF80040440291844506D98846802149028C467E
:10300800E044414602913604010C360C00048B461C
:1030180081191E0C1B041B0C0391190079438C4663
:10302800280075436544A8465843050C4544774332
:10303800A94203D9802149028C466744290C8C4651
:1030480039000004000C2D042D186144AB4405918F
:103058005946049101990F043F0C080C390051435B
:103068004243904602008C46090C8B4662437C43DF
:1030780044445C44A04503D980214902884642441F
:10308800210C884661460904090C8C4639005943CD
:10309800434370437E430F0CF6182404BE1964445E
:1030A80042448C46B34203D980235B02984640448D
:1030B800029B61469846049B370443449B46AB45B4
:1030C800AD416B420D0405992D0C8C467F19674460
:1030D800FD18A8465D462D19A542A44193466442B1
:1030E800A446C344DC448F42BF4198459B41934565
:1030F8009241A445A4415B427F421F43360C524291
:103108006442BF192243BF18624638184302D20DE1
:10311800039913436A020A43501E82416146ED0D2A
:103128002A434E023243D90100D4B3E001265008A5
:1031380032400243DE0732435B08224C5444002CE1
:1031480062DD510709D00F201040042805D0101D5A
:103158009042924152429B180200D90104D5802422
:103168001948E400034054441848844200DD27E726
:103178005E075B02D2081F0B630516435B0DB2E6C0
:10318800002399460133042700269B4664E603235F
:10319800019781460C279B465EE6012201201743D2
:1031A800002276E6032303201F43434671E6C04608
:1031B800FF07000001FCFFFFEC3E0008FFFF0F8047
:1031C8000DFCFFFFFF030000FFFFFFFEFE070000EE
:1031D8000023802700933F030026434B83E6019B8F
:1031E8003200A446584670E6AC466EE68027019940
:1031F8003F0339422DD03B422BD11F433F033F0BA6
:1032080000951600384B6EE601252D1B382D00DD84
:1032180066E61F2D40DC35481C00504416008240ED
:103228008440EE40501E824134431443EB40620711
:1032380009D00F222240042A05D02200141D9442EE
:10324800804140421B181A023ED501230027002660
:1032580049E68027019B3F031F433F033F0B009430
:10326800214B40E603005A46283B9A40002601922B
:103278006DE6584600F066FC203057E603005246DB
:10328800283B9A401300002293E6504600F05AFC6F
:1032980020307BE6CA4650E71F201E004042041B30
:1032A800E640202D03D0124C5444A3401A43501E2C
:1032B8008241324307260027164009D00F200023F9
:1032C800104014000428B9D122005E075B021F0BCE
:1032D800D2081643002306E680273F031F433F0317
:1032E8003F0B1600004BFEE5FF0700001E04000020
:1032F8003E040000F8B557464E464546DE460C00EB
:103308000903E0B5490A460F5F0031431E03DB0F8E
:10331800760A9B46530F3343C84E6500C000E40F3E
:10332800D2006D0DA24681467F0D9C469046B7425D
:1033380000D1B9E05B46012673409B46EE1BA345CE
:1033480000D183E0002E63DD002F00D0B1E063469A
:10335800134300D123E1731E002B00D0BAE1861A73
:103368006346B04280410125C91A4042091A0B023E
:1033780000D447E149024B0A98464346002B00D146
:1033880089E1404600F0DEFB0300083B1F2B00DD0F
:103398007CE120223000D21A4146D04099400200F8
:1033A8009E400A439D4200DD6AE15D1B6B1C1F2B9A
:1033B80000DD94E1202110003500C91A8E40DA4062
:1033C8008840DD40711E8E411100072228430025E8
:1033D80006433240002A09D00F233340042B05D07E
:1033E800331DB342B641764289191E000B0200D440
:1033F8003DE26A1C914B55056D0D9A4200D119E1C9
:103408008F4AF6080A40570752023743120B9BE0CF
:10341800002E00D0C5E06E1C7605760D012E00DC6E
:1034280048E16746861ACB1BB042BF417F42B84687
:103438001F004346FF1A3B00B8461B0200D55FE158
:1034480037439AD100220024002579E0002E00DCC1
:10345800FAE0002F00D18DE0784B9D4267D08023A1
:1034680067461B041F43BC46382E00DC52E1634606
:1034780013435A1E93411E18864280414042091840
:103488000B0200D4BEE06D4B01359D4200D1D2E065
:103498006B4A73080A4001210E401E435108D307A6
:1034A80007221E43324095E71E00164300D045E729
:1034B80040E7624B9D423AD0802367461B041F4376
:1034C800BC46382E00DDEBE01F2E00DC3AE133006D
:1034D8006746203BDF403B00202E05D04027BF1B1E
:1034E8006646BE40324390464646721E9641334376
:1034F800DAE0002B00D114E26346134300D168E1FF
:1035080080234E07C008C9081B030643194208D088
:103518006046C008184204D163460100D2085E071D
:103528001643F3009946C900720F444D11434B46A8
:10353800DE08424B4F073743CA089D4200D16EE070
:1035480012036D05120B6D0D00211203130B0A0DEA
:1035580012051A433B4B2D0513402B435B00E40730
:103568005B082343380019003CBC90469946A246A4
:10357800AB46F8BD6346134311D0731E002B00D031
:1035880007E18618864280416144404209180125B6
:103598000B0237D502257BE73E0061469146350090
:1035A800C5E75C46002D00D0E1E00B000343F3D0F3
:1035B800731C00D1ACE1214B9F4200D13AE1F343A7
:1035C800382B00DD6FE11F2B00DD8CE120250E007C
:1035D800ED1AAE40B0460600AA46DE4045463543E1
:1035E8002E005546D940A8406346451EA8415B1A9F
:1035F8009C463043161AB242924163465242991A87
:103608003D00B4E607223240002A00D0E4E60B4B26
:10361800F6084F073743CA089D4200D090E73B00A1
:10362800134300D1A6E180231B031A431203120B94
:10363800024D89E715000022002785E7FF070000F3
:10364800FFFF7FFFFFFF0F80002E00D0C7E06B1C3D
:103658005E05760D012E00DCF0E0C84DAB4200D1CE
:10366800B9E085180A0085428941624449425118E7
:103678000722CE076D082E43490832401D00A9E6EF
:10368800BF49ED1A114007223240A3E6320028381C
:103698008240002686E6300000F054FA203073E6B7
:1036A800634613435A1E9341C61AB04280414042B2
:1036B800091A5CE60E00674606431743002D5ED1E3
:1036C800002E00D0F3E0002F00D11EE15C466146D9
:1036D80091462CE7A94FBE427BD01E00F1E61000B0
:1036E8001F3DE840202B03D04021CB1A9A401643B7
:1036F800731E9E410722064332400021002583E7BE
:10370800161A6346B2428041591A40420B1A98462B
:103718005C4632E61F2E00DDABE02027BB1B9A4635
:1037280063465746BB40994613004F46F3401F4334
:103738003B005746BA40571EBA4113436246F2400F
:10374800891898E62027BB1B9A4663465746BB4014
:10375800994613004F46F3401F433B005746BA4073
:10376800571EBA4113436246F240891A9CE7834BBD
:103778009F425FD080252D047342294320E7002E05
:103788000CD1002F00D1D0E05C46614691467B4DBC
:10379800CDE67A4FBE421CD01E0065E6002F18D039
:1037A800C0084E0706438020C9080003014208D01C
:1037B8006346DC08044204D12100DA46D2085E07D9
:1037C8001643F300994601245346C900720F11436A
:1037D8001C406A4DABE61D0000220027B4E6002D10
:1037E80059D10B00034300D1D6E6731C00D1B2E0D7
:1037F800624B9F421ED0F343382B6FDC1F2B00DD3A
:1038080097E020250E00ED1AAE40B0460600AA4605
:10381800DE40454635432E005546A840D940451E52
:10382800A8418C440643B6189642924151426144DD
:103838003D0025E63D006146914678E60B000343CE
:10384800002D00D055E6002BF5D06346134300D178
:103858006DE686188642804161444042091800227C
:103868000B0200D4D0E6464B01351940B2E5B1460B
:103878005DE633006746203BDF403B00202E05D045
:103888004027BF1B6646BE40324390464646721EDE
:1038980096413343EFE5394B9F42CBD080252D0429
:1038A80073422943A8E70843411E8841A2E6002F36
:1038B80000D13CE66346861ACF1AB0429B415B4270
:1038C800FB1A98461B024ED5161A6346B24292411D
:1038D800591A5242891A5C4600227BE501430E00C0
:1038E800711E8E419FE71D000E00203DEE40B04640
:1038F800202B04D04025EB1A9940084381464846BE
:103908004346411E8841184374E60022002417E606
:10391800161A6346B2429241591A5242891A3D0018
:1039280025E561469146154D01E6802200241203E3
:1039380079E61D000E00203DEE40B046202B04D055
:103948004025EB1A9940084381464E464346711E6E
:103958008E411E4367E7861896429B4161445B424D
:10396800C9183D008CE547463743CED0072241466B
:10397800324049E600273A00E6E5C046FF07000066
:10398800FFFF7FFF30B5144D0A034B00120B5B0D90
:10399800C90F0024AB4211DD104CA34210DC802477
:1039A800640322430E4CE41A1F2C0CDD0D48C31A85
:1039B800DA4013005C42002900D11C00200030BD11
:1039C800094BCC18FAE7094DE040AC4663449A40ED
:1039D80013000343EEE7C046FE0300001D04000089
:1039E8003304000013040000FFFFFF7FEDFBFFFF1F
:1039F80070B500282DD0C317C5185D40C40F280026
:103A080000F0A0F8154B1B1A5B055B0D0A2815DDA5
:103A18000B38854000222D032D0B002110002D03AB
:103A28000A0D2D0B12052A430D4D1B052A40134381
:103A38005B00E4075B082343190070BD02002900FE
:103A4800153291400A000B21081AC5402D032D0B91
:103A5800E3E70024002300250022DEE71E0400001F
:103A6800FFFF0F8010B5041E25D000F06BF8144B33
:103A78001B1A5B055B0D0A2812DD0B3884400022F7
:103A88002403240B0021100024030A0D240B120523
:103A980022430C4C1B05224013435B00590810BD00
:103AA80002002100153291400A000B21081AC44077
:103AB8002403240BE6E7002300240022E2E7C046A3
:103AC8001E040000FFFF0F808446101C62468C46CF
:103AD800191C634600E0C0461FB500F0F1F8002845
:103AE80001D40021C8421FBD10B500F049F840427A
:103AF800013010BD10B500F0E3F8002801DB00200C
:103B080010BD012010BDC04610B500F0D9F800283E
:103B180001DD002010BD012010BDC04610B500F029
:103B28006BF8002801DC002010BD012010BDC04644
:103B380010B500F061F8002801DA002010BD01205E
:103B480010BDC0461C2101231B04984201D3000C60
:103B580010391B0A984201D3000A08391B099842F8
:103B680001D30009043902A2105C40187047C0460E
:103B7800040302020101010100000000000000002E
:103B8800F0B54F464646D6468446C0B58046194EDF
:103B980018030F034D00000B5C0082463F0B6D0DB0
:103BA800C90F9146640DDB0F0120B5420AD0B4421B
:103BB80003D0A54201D157450CD01CBC904699466C
:103BC800A246F0BD66463E43F7D1AC42F5D1544615
:103BD8001443F2D10120C845EFD1994207D0002DF6
:103BE800EBD163461F433800471EB841E5E7002084
:103BF800E3E7C046FF070000F0B54F464646D64605
:103C08004D00C0B50E03C90F8A462C491F035C003E
:103C18008046360B6D0D91463F0B640DDB0F8D42D0
:103C28001ED08C4216D0002D1ED130438446002C65
:103C380001D13A4323D06246002A1AD09A4529D0A6
:103C4800514602200139084001381CBC904699466B
:103C5800A246F0BD39001143E5D002204042F4E706
:103C68003043FAD1AC420FD0002C0FD13A43E7D001
:103C78000CE00122013B934318000130E5E763465D
:103C88000020002BE1D0DBE73A43E6D19A45D7D1B3
:103C9800A542D5DCA54205DBBE42D1D808D000201C
:103CA800BE42D2D250460123013898430130CCE7B6
:103CB800C845C5D80020C845F4D3C6E7FF070000AB
:103CC800F0B54F464646D6464D00C0B50E03C90F5F
:103CD8008A462E491F035C008046360B6D0D9146BF
:103CE8003F0B640DDB0F8D4218D08C4211D0002D94
:103CF80018D130438446002C1ED13A431CD1634668
:103D08000020002B30D051460220013908400138EC
:103D18002AE039001143EAD0022025E03043FBD1E4
:103D2800AC4226D0002C26D13A4324D15146022059
:103D380001390840013817E06246002A0FD09A4539
:103D4800E1D1A54205DBBE42DDD819D00020BE4234
:103D58000AD25046012301389843013004E0012279
:103D6800013B9343180001301CBC90469946A2467B
:103D7800F0BD3A43D0D19A45C5D1A542C3DCE0E7AE
:103D8800C845C0D80020C845E3D3EDE7FF070000C9
:103D9800C317C018584070472E2E2F737973746557
:103DA8006D2F7372632F73746D333266302D737495
:103DB800647065726970682F73746D333266307819
:103DC800785F646D612E63002E2E2F73797374658E
:103DD8006D2F7372632F73746D333266302D737465
:103DE800647065726970682F73746D3332663078E9
:103DF800785F6D6973632E63000000002E2E2F73A9
:103E0800797374656D2F7372632F73746D333266B3
:103E1800302D7374647065726970682F73746D33B4
:103E280032663078785F7263632E63002E2E2F73AC
:103E3800797374656D2F7372632F73746D33326683
:103E4800302D7374647065726970682F73746D3384
:103E580032663078785F75736172742E6300000083
:103E680061626F727428292C2065786974696E679D
:103E78002E2E2E002C2066756E6374696F6E3A20A4
:103E88000000000000000000617373657274696FC0
:103E98006E2022257322206661696C65643A20666B
:103EA800696C6520222573222C206C696E6520259B
:103EB80064257325730A00006173736572745F70FB
:103EC8006172616D2829206661696C65643A2066B3
:103ED800696C6520222573222C206C696E6520256B
:103EE800640A0000D02F0008D22E0008D22E000845
:103EF800F0310008CC2E0008CC2E0008D83100087C
:103F0800F0310008CC2E0008D8310008CC2E00086B
:103F1800F0310008E6310008E6310008E631000813
:043F2800F431000868
:103F2C00785634120000000001020304010203045D
:103F3C00060708093C00002000000000006CDC02B1
:103F4C00000000000000000001020304060708093D
:083F5C002C01FFFF325476989E
:04000005080000C52A
:00000001FF
